{
  "address": "0x4C2F7092C2aE51D986bEFEe378e50BD4dB99C901",
  "abi": [
    {
      "anonymous": false,
      "inputs": [
        {
          "indexed": false,
          "internalType": "address",
          "name": "user",
          "type": "address"
        },
        {
          "indexed": false,
          "internalType": "uint256",
          "name": "amount",
          "type": "uint256"
        }
      ],
      "name": "NewSubscriber",
      "type": "event"
    },
    {
      "inputs": [
        {
          "internalType": "contract ISuperToken",
          "name": "",
          "type": "address"
        },
        {
          "internalType": "bytes",
          "name": "ctx",
          "type": "bytes"
        },
        {
          "internalType": "address",
          "name": "agreementClass",
          "type": "address"
        },
        {
          "internalType": "bytes32",
          "name": "agreementId",
          "type": "bytes32"
        },
        {
          "internalType": "bytes",
          "name": "cbdata",
          "type": "bytes"
        }
      ],
      "name": "afterAgreementCreated",
      "outputs": [
        {
          "internalType": "bytes",
          "name": "newCtx",
          "type": "bytes"
        }
      ],
      "stateMutability": "nonpayable",
      "type": "function"
    },
    {
      "inputs": [
        {
          "internalType": "contract ISuperToken",
          "name": "",
          "type": "address"
        },
        {
          "internalType": "bytes",
          "name": "ctx",
          "type": "bytes"
        },
        {
          "internalType": "address",
          "name": "",
          "type": "address"
        },
        {
          "internalType": "bytes32",
          "name": "",
          "type": "bytes32"
        },
        {
          "internalType": "bytes",
          "name": "cbdata",
          "type": "bytes"
        }
      ],
      "name": "afterAgreementTerminated",
      "outputs": [
        {
          "internalType": "bytes",
          "name": "newCtx",
          "type": "bytes"
        }
      ],
      "stateMutability": "nonpayable",
      "type": "function"
    },
    {
      "inputs": [
        {
          "internalType": "contract ISuperToken",
          "name": "",
          "type": "address"
        },
        {
          "internalType": "bytes",
          "name": "ctx",
          "type": "bytes"
        },
        {
          "internalType": "address",
          "name": "agreementClass",
          "type": "address"
        },
        {
          "internalType": "bytes32",
          "name": "agreementId",
          "type": "bytes32"
        },
        {
          "internalType": "bytes",
          "name": "cbdata",
          "type": "bytes"
        }
      ],
      "name": "afterAgreementUpdated",
      "outputs": [
        {
          "internalType": "bytes",
          "name": "newCtx",
          "type": "bytes"
        }
      ],
      "stateMutability": "nonpayable",
      "type": "function"
    },
    {
      "inputs": [],
      "name": "avatarURL",
      "outputs": [
        {
          "internalType": "string",
          "name": "",
          "type": "string"
        }
      ],
      "stateMutability": "view",
      "type": "function"
    },
    {
      "inputs": [
        {
          "internalType": "contract ISuperToken",
          "name": "superToken",
          "type": "address"
        },
        {
          "internalType": "bytes",
          "name": "ctx",
          "type": "bytes"
        },
        {
          "internalType": "address",
          "name": "agreementClass",
          "type": "address"
        },
        {
          "internalType": "bytes32",
          "name": "",
          "type": "bytes32"
        }
      ],
      "name": "beforeAgreementCreated",
      "outputs": [
        {
          "internalType": "bytes",
          "name": "cbdata",
          "type": "bytes"
        }
      ],
      "stateMutability": "view",
      "type": "function"
    },
    {
      "inputs": [
        {
          "internalType": "contract ISuperToken",
          "name": "superToken",
          "type": "address"
        },
        {
          "internalType": "bytes",
          "name": "",
          "type": "bytes"
        },
        {
          "internalType": "address",
          "name": "agreementClass",
          "type": "address"
        },
        {
          "internalType": "bytes32",
          "name": "",
          "type": "bytes32"
        }
      ],
      "name": "beforeAgreementTerminated",
      "outputs": [
        {
          "internalType": "bytes",
          "name": "cbdata",
          "type": "bytes"
        }
      ],
      "stateMutability": "view",
      "type": "function"
    },
    {
      "inputs": [
        {
          "internalType": "contract ISuperToken",
          "name": "superToken",
          "type": "address"
        },
        {
          "internalType": "bytes",
          "name": "ctx",
          "type": "bytes"
        },
        {
          "internalType": "address",
          "name": "agreementClass",
          "type": "address"
        },
        {
          "internalType": "bytes32",
          "name": "",
          "type": "bytes32"
        }
      ],
      "name": "beforeAgreementUpdated",
      "outputs": [
        {
          "internalType": "bytes",
          "name": "cbdata",
          "type": "bytes"
        }
      ],
      "stateMutability": "view",
      "type": "function"
    },
    {
      "inputs": [
        {
          "internalType": "address",
          "name": "membership",
          "type": "address"
        },
        {
          "internalType": "bytes",
          "name": "ctx",
          "type": "bytes"
        }
      ],
      "name": "collateral",
      "outputs": [],
      "stateMutability": "nonpayable",
      "type": "function"
    },
    {
      "inputs": [],
      "name": "creator",
      "outputs": [
        {
          "internalType": "address",
          "name": "",
          "type": "address"
        }
      ],
      "stateMutability": "view",
      "type": "function"
    },
    {
      "inputs": [],
      "name": "creatorTitle",
      "outputs": [
        {
          "internalType": "string",
          "name": "",
          "type": "string"
        }
      ],
      "stateMutability": "view",
      "type": "function"
    },
    {
      "inputs": [
        {
          "internalType": "address",
          "name": "",
          "type": "address"
        }
      ],
      "name": "currentBalance",
      "outputs": [
        {
          "internalType": "uint256",
          "name": "amount",
          "type": "uint256"
        },
        {
          "internalType": "bool",
          "name": "isSubscribed",
          "type": "bool"
        }
      ],
      "stateMutability": "view",
      "type": "function"
    },
    {
      "inputs": [],
      "name": "getAllMetadata",
      "outputs": [
        {
          "internalType": "string[]",
          "name": "",
          "type": "string[]"
        }
      ],
      "stateMutability": "view",
      "type": "function"
    },
    {
      "inputs": [
        {
          "internalType": "address",
          "name": "owner",
          "type": "address"
        },
        {
          "internalType": "string",
          "name": "_avatarURL",
          "type": "string"
        },
        {
          "internalType": "string",
          "name": "_creatorTitle",
          "type": "string"
        },
        {
          "internalType": "uint256",
          "name": "_subscriptionPrice",
          "type": "uint256"
        },
        {
          "internalType": "contract ISuperfluid",
          "name": "host",
          "type": "address"
        },
        {
          "internalType": "contract IConstantFlowAgreementV1",
          "name": "cfa",
          "type": "address"
        },
        {
          "internalType": "contract ISuperToken",
          "name": "acceptedToken",
          "type": "address"
        }
      ],
      "name": "init",
      "outputs": [],
      "stateMutability": "nonpayable",
      "type": "function"
    },
    {
      "inputs": [
        {
          "internalType": "address",
          "name": "",
          "type": "address"
        }
      ],
      "name": "membershipPrice",
      "outputs": [
        {
          "internalType": "uint256",
          "name": "",
          "type": "uint256"
        }
      ],
      "stateMutability": "view",
      "type": "function"
    },
    {
      "inputs": [
        {
          "internalType": "uint256",
          "name": "",
          "type": "uint256"
        }
      ],
      "name": "metadataURL",
      "outputs": [
        {
          "internalType": "string",
          "name": "",
          "type": "string"
        }
      ],
      "stateMutability": "view",
      "type": "function"
    },
    {
      "inputs": [
        {
          "internalType": "string",
          "name": "_newURL",
          "type": "string"
        }
      ],
      "name": "setAvatarURL",
      "outputs": [],
      "stateMutability": "nonpayable",
      "type": "function"
    },
    {
      "inputs": [
        {
          "internalType": "uint256",
          "name": "price",
          "type": "uint256"
        }
      ],
      "name": "setMembershipPrice",
      "outputs": [],
      "stateMutability": "nonpayable",
      "type": "function"
    },
    {
      "inputs": [
        {
          "internalType": "string",
          "name": "_url",
          "type": "string"
        }
      ],
      "name": "setMetadataURL",
      "outputs": [],
      "stateMutability": "nonpayable",
      "type": "function"
    },
    {
      "inputs": [
        {
          "internalType": "address",
          "name": "",
          "type": "address"
        }
      ],
      "name": "streamers",
      "outputs": [
        {
          "internalType": "address",
          "name": "",
          "type": "address"
        }
      ],
      "stateMutability": "view",
      "type": "function"
    },
    {
      "inputs": [
        {
          "internalType": "uint256",
          "name": "_amount",
          "type": "uint256"
        }
      ],
      "name": "subscribe",
      "outputs": [
        {
          "internalType": "bool",
          "name": "",
          "type": "bool"
        }
      ],
      "stateMutability": "nonpayable",
      "type": "function"
    },
    {
      "inputs": [],
      "name": "subscriptionPrice",
      "outputs": [
        {
          "internalType": "uint256",
          "name": "",
          "type": "uint256"
        }
      ],
      "stateMutability": "view",
      "type": "function"
    }
  ],
  "transactionHash": "0x0c678909009648a601f1a76d506972f3c2f4cade6cfdd3acb12ff25e7cc8fc88",
  "args": [],
  "solcInputHash": "e9996e06e619079ad7c1e24f7b1b59b8",
  "bytecode": "0x608060405234801561001057600080fd5b50611dcc806100206000396000f3fe608060405234801561001057600080fd5b50600436106101775760003560e01c80639e546c38116100d8578063bdc8e54c1161008c578063d9a1963511610066578063d9a19635146102e0578063da37411e146102cd578063e9d70dc4146102f557610177565b8063bdc8e54c146102b2578063be6baf9b146102ba578063d002c9a5146102cd57610177565b8063ad9acf6d116100bd578063ad9acf6d1461028a578063b5c7b69214610292578063bd2da4a31461020257610177565b80639e546c3814610256578063a07354fa1461027757610177565b80632d9c93381161012f5780633a789b8e116101145780633a789b8e1461021d57806369d5f38a14610230578063747daec51461024357610177565b80632d9c93381461020257806335e4df491461021557610177565b806313ebc91b1161016057806313ebc91b146101ba57806317dd68ce146101cf5780631dd07164146101ef57610177565b806302d05d3f1461017c5780630f574ba71461019a575b600080fd5b610184610308565b6040516101919190611978565b60405180910390f35b6101ad6101a83660046118d3565b610317565b6040516101919190611a61565b6101cd6101c836600461159d565b61041a565b005b6101e26101dd366004611787565b6105d5565b6040516101919190611a9b565b6101846101fd366004611542565b610677565b6101e2610210366004611787565b610692565b6101e2610721565b6101e261022b3660046118d3565b6107af565b6101cd61023e3660046118d3565b610822565b6101cd610251366004611893565b610834565b610269610264366004611542565b6108a0565b604051610191929190611cfb565b6101cd6102853660046115f0565b6108bc565b6101e26109f9565b6102a56102a0366004611542565b610a54565b6040516101919190611cf2565b6102a5610a66565b6101e26102c83660046117f5565b610a6c565b6101e26102db3660046117f5565b610b08565b6102e8610b43565b60405161019191906119e3565b6101cd610303366004611893565b610c1b565b6008546001600160a01b031681565b60008161033f5760405162461bcd60e51b815260040161033690611c5e565b60405180910390fd5b6008546001600160a01b031633141561036a5760405162461bcd60e51b815260040161033690611c95565b336000908152600c602052604090206001015460ff161561039d5760405162461bcd60e51b815260040161033690611c27565b60408051808201825283815260016020808301828152336000818152600c90935291859020935184555192909101805460ff19169215159290921790915590517fce0075c1f42f302c3a05c66b51768b703874cfaf0c0bd1202116be4594a754429161040a91859061198c565b60405180910390a1506001919050565b6104586040518060400160405280600381526020017f636f6c0000000000000000000000000000000000000000000000000000000000815250610c51565b60008054604051631fb6491d60e11b81526001600160a01b0390911690633f6c923a9061048b9086908690600401611a6c565b60a06040518083038186803b1580156104a357600080fd5b505afa1580156104b7573d6000803e3d6000fd5b505050506040513d601f19601f820116820180604052508101906104db9190611701565b50506001600160a01b038088166000908152600e6020526040908190205460025491517f23b872dd00000000000000000000000000000000000000000000000000000000815293965094501691506323b872dd90610541908590899086906004016119bf565b602060405180830381600087803b15801561055b57600080fd5b505af115801561056f573d6000803e3d6000fd5b505050506040513d601f19601f8201168201806040525081019061059391906116cd565b50506001600160a01b039081166000908152600d6020526040902080549190941673ffffffffffffffffffffffffffffffffffffffff19909116179092555050565b6000546060906001600160a01b031633146106025760405162461bcd60e51b815260040161033690611bca565b61060b86610cc5565b158061061d575061061b83610cd9565b155b1561064a5760016040516020016106349190611a61565b604051602081830303815290604052905061066e565b600060405160200161065c9190611a61565b60405160208183030381529060405290505b95945050505050565b600d602052600090815260409020546001600160a01b031681565b6000546060906001600160a01b031633146106bf5760405162461bcd60e51b815260040161033690611bca565b85836106ca82610cc5565b6106e65760405162461bcd60e51b815260040161033690611b6d565b6106ef81610cd9565b61070b5760405162461bcd60e51b815260040161033690611ad9565b6107158787610d74565b98975050505050505050565b6009805460408051602060026001851615610100026000190190941693909304601f810184900484028201840190925281815292918301828280156107a75780601f1061077c576101008083540402835291602001916107a7565b820191906000526020600020905b81548152906001019060200180831161078a57829003601f168201915b505050505081565b600781815481106107bc57fe5b600091825260209182902001805460408051601f60026000196101006001871615020190941693909304928301859004850281018501909152818152935090918301828280156107a75780601f1061077c576101008083540402835291602001916107a7565b336000908152600e6020526040902055565b6008546001600160a01b0316331461085e5760405162461bcd60e51b815260040161033690611b36565b6007805460018101825560009190915261089b907fa66cc928b5edb82af9bd49922954155ab7b0942694bea4ce44661d9a8736c688018383611468565b505050565b600c602052600090815260409020805460019091015460ff1682565b6008805473ffffffffffffffffffffffffffffffffffffffff19166001600160a01b038b161790556108f060098989611468565b506108fd600a8787611468565b50600b8490556001600160a01b03831661091357fe5b6001600160a01b03821661092357fe5b6001600160a01b03811661093357fe5b600080546001600160a01b0380861673ffffffffffffffffffffffffffffffffffffffff19928316179283905560018054868316908416178155600280548684169416939093179092556040517fad3915c80000000000000000000000000000000000000000000000000000000081529192169063ad3915c8906109bb908490600401611cf2565b600060405180830381600087803b1580156109d557600080fd5b505af11580156109e9573d6000803e3d6000fd5b5050505050505050505050505050565b600a805460408051602060026001851615610100026000190190941693909304601f810184900484028201840190925281815292918301828280156107a75780601f1061077c576101008083540402835291602001916107a7565b600e6020526000908152604090205481565b600b5481565b6000546060906001600160a01b03163314610a995760405162461bcd60e51b815260040161033690611bca565b6000610aa7838501856116b1565b90508015610aef5787878080601f016020809104026020016040519081016040528093929190818152602001838380828437600092019190915250929450610afd9350505050565b610af98888610ec5565b9150505b979650505050505050565b6000546060906001600160a01b03163314610b355760405162461bcd60e51b815260040161033690611bca565b610715878787878787610f6c565b60606007805480602002602001604051908101604052809291908181526020016000905b82821015610c125760008481526020908190208301805460408051601f6002600019610100600187161502019094169390930492830185900485028101850190915281815292830182828015610bfe5780601f10610bd357610100808354040283529160200191610bfe565b820191906000526020600020905b815481529060010190602001808311610be157829003601f168201915b505050505081526020019060010190610b67565b50505050905090565b6008546001600160a01b03163314610c455760405162461bcd60e51b815260040161033690611b36565b61089b60098383611468565b610cc281604051602401610c659190611a9b565b60408051601f198184030181529190526020810180517bffffffffffffffffffffffffffffffffffffffffffffffffffffffff167f41304fac00000000000000000000000000000000000000000000000000000000179052611275565b50565b6002546001600160a01b0390811691161490565b60007fa9214cc96615e0085d3bb077758db69497dc2dce3b2b1e97bc93c3d18d83efd3826001600160a01b0316637730599e6040518163ffffffff1660e01b815260040160206040518083038186803b158015610d3557600080fd5b505afa158015610d49573d6000803e3d6000fd5b505050506040513d601f19601f82011682018060405250810190610d6d91906116e9565b1492915050565b6060610db46040518060400160405280600281526020017f6273000000000000000000000000000000000000000000000000000000000000815250610c51565b60008054604051631fb6491d60e11b81526001600160a01b0390911690633f6c923a90610de79087908790600401611a6c565b60a06040518083038186803b158015610dff57600080fd5b505afa158015610e13573d6000803e3d6000fd5b505050506040513d601f19601f82011682018060405250810190610e379190611701565b50506001600160a01b038082166000908152600d60209081526040918290205482516080810190935260468084529497509092169450600193509190611d2f9083013990610e985760405162461bcd60e51b81526004016103369190611a9b565b508181604051602001610eac9291906119a5565b6040516020818303038152906040529250505092915050565b60008054604051631fb6491d60e11b8152606092916001600160a01b031690633f6c923a90610efa9087908790600401611a6c565b60a06040518083038186803b158015610f1257600080fd5b505afa158015610f26573d6000803e3d6000fd5b505050506040513d601f19601f82011682018060405250810190610f4a9190611701565b505092505050610f6481600361129690919063ffffffff16565b505092915050565b6060610fac6040518060400160405280600181526020017f7300000000000000000000000000000000000000000000000000000000000000815250610c51565b600080610fbb84860186611565565b91509150610ffe6040518060400160405280601181526020017f73747265616d657220616464726573733a000000000000000000000000000000815250836112b4565b61103d6040518060400160405280601381526020017f6d656d6265727368697020616464726573733a00000000000000000000000000815250826112b4565b61107c6040518060400160405280600f81526020017f61677265656d656e74636c6173733a0000000000000000000000000000000000815250886112b4565b6002546040517faabd26680000000000000000000000000000000000000000000000000000000081526000916001600160a01b03808b169263aabd2668926110ca9216908b9060040161198c565b60806040518083038186803b1580156110e257600080fd5b505afa1580156110f6573d6000803e3d6000fd5b505050506040513d601f19601f8201168201806040525081019061111a91906118eb565b505091505062278d00674563918244f400008161113357fe5b04600b0b81600b0b1215604051806060016040528060228152602001611d7560229139906111745760405162461bcd60e51b81526004016103369190611a9b565b506111b36040518060400160405280600c81526020017f6166746572726571756972650000000000000000000000000000000000000000815250610c51565b6001600160a01b0383166000908152600d60205260409020805473ffffffffffffffffffffffffffffffffffffffff191690556111f160038461132b565b506112306040518060400160405280600d81526020017f616674657273747265616d657200000000000000000000000000000000000000815250610c51565b89898080601f016020809104026020016040519081016040528093929190818152602001838380828437600092019190915250929d9c50505050505050505050505050565b80516a636f6e736f6c652e6c6f67602083016000808483855afa5050505050565b60006112ab836001600160a01b038416611340565b90505b92915050565b61132782826040516024016112ca929190611aae565b60408051601f198184030181529190526020810180517bffffffffffffffffffffffffffffffffffffffffffffffffffffffff167f319af33300000000000000000000000000000000000000000000000000000000179052611275565b5050565b60006112ab836001600160a01b038416611406565b600081815260018301602052604081205480156113fc578354600019808301919081019060009087908390811061137357fe5b906000526020600020015490508087600001848154811061139057fe5b6000918252602080832090910192909255828152600189810190925260409020908401905586548790806113c057fe5b600190038181906000526020600020016000905590558660010160008781526020019081526020016000206000905560019450505050506112ae565b60009150506112ae565b60006114128383611450565b611448575081546001818101845560008481526020808220909301849055845484825282860190935260409020919091556112ae565b5060006112ae565b60009081526001919091016020526040902054151590565b828054600181600116156101000203166002900490600052602060002090601f016020900481019282601f106114a95782800160ff198235161785556114d6565b828001600101855582156114d6579182015b828111156114d65782358255916020019190600101906114bb565b506114e29291506114e6565b5090565b5b808211156114e257600081556001016114e7565b60008083601f84011261150c578182fd5b50813567ffffffffffffffff811115611523578182fd5b60208301915083602082850101111561153b57600080fd5b9250929050565b600060208284031215611553578081fd5b813561155e81611d0b565b9392505050565b60008060408385031215611577578081fd5b823561158281611d0b565b9150602083013561159281611d0b565b809150509250929050565b6000806000604084860312156115b1578081fd5b83356115bc81611d0b565b9250602084013567ffffffffffffffff8111156115d7578182fd5b6115e3868287016114fb565b9497909650939450505050565b600080600080600080600080600060e08a8c03121561160d578485fd5b893561161881611d0b565b985060208a013567ffffffffffffffff80821115611634578687fd5b6116408d838e016114fb565b909a50985060408c0135915080821115611658578687fd5b506116658c828d016114fb565b90975095505060608a0135935060808a013561168081611d0b565b925060a08a013561169081611d0b565b915060c08a01356116a081611d0b565b809150509295985092959850929598565b6000602082840312156116c2578081fd5b813561155e81611d20565b6000602082840312156116de578081fd5b815161155e81611d20565b6000602082840312156116fa578081fd5b5051919050565b600080600080600060a08688031215611718578081fd5b85517fffffffff0000000000000000000000000000000000000000000000000000000081168114611747578182fd5b602087015190955060ff8116811461175d578182fd5b604087015190945061176e81611d0b565b6060870151608090970151959894975095949392505050565b60008060008060006080868803121561179e578283fd5b85356117a981611d0b565b9450602086013567ffffffffffffffff8111156117c4578384fd5b6117d0888289016114fb565b90955093505060408601356117e481611d0b565b949793965091946060013592915050565b600080600080600080600060a0888a03121561180f578081fd5b873561181a81611d0b565b9650602088013567ffffffffffffffff80821115611836578283fd5b6118428b838c016114fb565b909850965060408a0135915061185782611d0b565b9094506060890135935060808901359080821115611873578283fd5b506118808a828b016114fb565b989b979a50959850939692959293505050565b600080602083850312156118a5578182fd5b823567ffffffffffffffff8111156118bb578283fd5b6118c7858286016114fb565b90969095509350505050565b6000602082840312156118e4578081fd5b5035919050565b60008060008060808587031215611900578182fd5b84519350602085015180600b0b8114611917578283fd5b6040860151606090960151949790965092505050565b60008151808452815b8181101561195257602081850181015186830182015201611936565b818111156119635782602083870101525b50601f01601f19169290920160200192915050565b6001600160a01b0391909116815260200190565b6001600160a01b03929092168252602082015260400190565b6001600160a01b0392831681529116602082015260400190565b6001600160a01b039384168152919092166020820152604081019190915260600190565b6000602080830181845280855180835260408601915060408482028701019250838701855b82811015611a54577fffffffffffffffffffffffffffffffffffffffffffffffffffffffffffffffc0888603018452611a4285835161192d565b94509285019290850190600101611a08565b5092979650505050505050565b901515815260200190565b60006020825282602083015282846040840137818301604090810191909152601f909201601f19160101919050565b6000602082526112ab602083018461192d565b600060408252611ac1604083018561192d565b90506001600160a01b03831660208301529392505050565b60208082526025908201527f43726561746f6e53757065724170703a206f6e6c79204346417631207375707060408201527f6f72746564000000000000000000000000000000000000000000000000000000606082015260800190565b60208082526017908201527f596f7520617265206e6f74207468652063726561746f72000000000000000000604082015260600190565b60208082526023908201527f43726561746f6e53757065724170703a206e6f7420616363657074656420746f60408201527f6b656e0000000000000000000000000000000000000000000000000000000000606082015260800190565b60208082526026908201527f43726561746f6e53757065724170703a20737570706f7274206f6e6c79206f6e60408201527f6520686f73740000000000000000000000000000000000000000000000000000606082015260800190565b60208082526012908201527f416c726561647920737562736372696265640000000000000000000000000000604082015260600190565b6020808252601b908201527f4d697373696e6720737562736372697074696f6e20616d6f756e740000000000604082015260600190565b60208082526026908201527f43726561746f72732063616e27742073756273637269626520746f207468656d60408201527f73656c7665730000000000000000000000000000000000000000000000000000606082015260800190565b90815260200190565b9182521515602082015260400190565b6001600160a01b0381168114610cc257600080fd5b8015158114610cc257600080fdfe43726561746f6e53757065724170703a20737570706f727420746865206d656d6265727368697020796f7520706179656420636f6c6c61746572616c20666f7220666972737443726561746f6e53757065724170703a20666c6f77207261746520746f6f206c6f77a26469706673582212208af544674d7f9d1912725236b10dce398a4457b4f7839972b1edb47e67c1d74664736f6c63430007010033",
  "devdoc": {
    "kind": "dev",
    "methods": {
      "collateral(address,bytes)": {
        "details": "Take collateral fee from the potential supporter and add them acceptable streamers"
      }
    },
    "stateVariables": {
      "_MINIMUM_FLOW_RATE": {
        "details": "Minimum flow rate to participate (hardcoded to $5 / mo)"
      },
      "streamers": {
        "details": "Streamers (that are a)"
      }
    },
    "version": 1
  },
  "userdoc": {
    "kind": "user",
    "methods": {},
    "version": 1
  },
  "storageLayout": {
    "storage": [
      {
        "astId": 12836,
        "contract": "src/Creator.sol:Creator",
        "label": "_host",
        "offset": 0,
        "slot": "0",
        "type": "t_contract(ISuperfluid)17693"
      },
      {
        "astId": 12838,
        "contract": "src/Creator.sol:Creator",
        "label": "_cfa",
        "offset": 0,
        "slot": "1",
        "type": "t_contract(IConstantFlowAgreementV1)16547"
      },
      {
        "astId": 12840,
        "contract": "src/Creator.sol:Creator",
        "label": "_acceptedToken",
        "offset": 0,
        "slot": "2",
        "type": "t_contract(ISuperToken)17443"
      },
      {
        "astId": 12842,
        "contract": "src/Creator.sol:Creator",
        "label": "_supportersSet",
        "offset": 0,
        "slot": "3",
        "type": "t_struct(AddressSet)1967_storage"
      },
      {
        "astId": 12844,
        "contract": "src/Creator.sol:Creator",
        "label": "_membershipSet",
        "offset": 0,
        "slot": "5",
        "type": "t_struct(AddressSet)1967_storage"
      },
      {
        "astId": 12861,
        "contract": "src/Creator.sol:Creator",
        "label": "metadataURL",
        "offset": 0,
        "slot": "7",
        "type": "t_array(t_string_storage)dyn_storage"
      },
      {
        "astId": 12863,
        "contract": "src/Creator.sol:Creator",
        "label": "creator",
        "offset": 0,
        "slot": "8",
        "type": "t_address"
      },
      {
        "astId": 12865,
        "contract": "src/Creator.sol:Creator",
        "label": "avatarURL",
        "offset": 0,
        "slot": "9",
        "type": "t_string_storage"
      },
      {
        "astId": 12867,
        "contract": "src/Creator.sol:Creator",
        "label": "creatorTitle",
        "offset": 0,
        "slot": "10",
        "type": "t_string_storage"
      },
      {
        "astId": 12869,
        "contract": "src/Creator.sol:Creator",
        "label": "subscriptionPrice",
        "offset": 0,
        "slot": "11",
        "type": "t_uint256"
      },
      {
        "astId": 12873,
        "contract": "src/Creator.sol:Creator",
        "label": "currentBalance",
        "offset": 0,
        "slot": "12",
        "type": "t_mapping(t_address,t_struct(Balance)12858_storage)"
      },
      {
        "astId": 12897,
        "contract": "src/Creator.sol:Creator",
        "label": "streamers",
        "offset": 0,
        "slot": "13",
        "type": "t_mapping(t_address,t_address)"
      },
      {
        "astId": 12901,
        "contract": "src/Creator.sol:Creator",
        "label": "membershipPrice",
        "offset": 0,
        "slot": "14",
        "type": "t_mapping(t_address,t_uint256)"
      }
    ],
    "types": {
      "t_address": {
        "encoding": "inplace",
        "label": "address",
        "numberOfBytes": "20"
      },
      "t_array(t_bytes32)dyn_storage": {
        "base": "t_bytes32",
        "encoding": "dynamic_array",
        "label": "bytes32[]",
        "numberOfBytes": "32"
      },
      "t_array(t_string_storage)dyn_storage": {
        "base": "t_string_storage",
        "encoding": "dynamic_array",
        "label": "string[]",
        "numberOfBytes": "32"
      },
      "t_bool": {
        "encoding": "inplace",
        "label": "bool",
        "numberOfBytes": "1"
      },
      "t_bytes32": {
        "encoding": "inplace",
        "label": "bytes32",
        "numberOfBytes": "32"
      },
      "t_contract(IConstantFlowAgreementV1)16547": {
        "encoding": "inplace",
        "label": "contract IConstantFlowAgreementV1",
        "numberOfBytes": "20"
      },
      "t_contract(ISuperToken)17443": {
        "encoding": "inplace",
        "label": "contract ISuperToken",
        "numberOfBytes": "20"
      },
      "t_contract(ISuperfluid)17693": {
        "encoding": "inplace",
        "label": "contract ISuperfluid",
        "numberOfBytes": "20"
      },
      "t_mapping(t_address,t_address)": {
        "encoding": "mapping",
        "key": "t_address",
        "label": "mapping(address => address)",
        "numberOfBytes": "32",
        "value": "t_address"
      },
      "t_mapping(t_address,t_struct(Balance)12858_storage)": {
        "encoding": "mapping",
        "key": "t_address",
        "label": "mapping(address => struct Creator.Balance)",
        "numberOfBytes": "32",
        "value": "t_struct(Balance)12858_storage"
      },
      "t_mapping(t_address,t_uint256)": {
        "encoding": "mapping",
        "key": "t_address",
        "label": "mapping(address => uint256)",
        "numberOfBytes": "32",
        "value": "t_uint256"
      },
      "t_mapping(t_bytes32,t_uint256)": {
        "encoding": "mapping",
        "key": "t_bytes32",
        "label": "mapping(bytes32 => uint256)",
        "numberOfBytes": "32",
        "value": "t_uint256"
      },
      "t_string_storage": {
        "encoding": "bytes",
        "label": "string",
        "numberOfBytes": "32"
      },
      "t_struct(AddressSet)1967_storage": {
        "encoding": "inplace",
        "label": "struct EnumerableSet.AddressSet",
        "members": [
          {
            "astId": 1966,
            "contract": "src/Creator.sol:Creator",
            "label": "_inner",
            "offset": 0,
            "slot": "0",
            "type": "t_struct(Set)1702_storage"
          }
        ],
        "numberOfBytes": "64"
      },
      "t_struct(Balance)12858_storage": {
        "encoding": "inplace",
        "label": "struct Creator.Balance",
        "members": [
          {
            "astId": 12855,
            "contract": "src/Creator.sol:Creator",
            "label": "amount",
            "offset": 0,
            "slot": "0",
            "type": "t_uint256"
          },
          {
            "astId": 12857,
            "contract": "src/Creator.sol:Creator",
            "label": "isSubscribed",
            "offset": 0,
            "slot": "1",
            "type": "t_bool"
          }
        ],
        "numberOfBytes": "64"
      },
      "t_struct(Set)1702_storage": {
        "encoding": "inplace",
        "label": "struct EnumerableSet.Set",
        "members": [
          {
            "astId": 1697,
            "contract": "src/Creator.sol:Creator",
            "label": "_values",
            "offset": 0,
            "slot": "0",
            "type": "t_array(t_bytes32)dyn_storage"
          },
          {
            "astId": 1701,
            "contract": "src/Creator.sol:Creator",
            "label": "_indexes",
            "offset": 0,
            "slot": "1",
            "type": "t_mapping(t_bytes32,t_uint256)"
          }
        ],
        "numberOfBytes": "64"
      },
      "t_uint256": {
        "encoding": "inplace",
        "label": "uint256",
        "numberOfBytes": "32"
      }
    }
  }
}