{
  "address": "0x1c85638e118b37167e9298c2268758e058DdfDA0",
  "abi": [
    {
      "inputs": [
        {
          "internalType": "contract ISuperfluid",
          "name": "host",
          "type": "address"
        },
        {
          "internalType": "contract IConstantFlowAgreementV1",
          "name": "cfa",
          "type": "address"
        },
        {
          "internalType": "contract ISuperToken",
          "name": "acceptedToken",
          "type": "address"
        }
      ],
      "stateMutability": "nonpayable",
      "type": "constructor"
    },
    {
      "anonymous": false,
      "inputs": [
        {
          "indexed": false,
          "internalType": "address",
          "name": "user",
          "type": "address"
        },
        {
          "indexed": false,
          "internalType": "address",
          "name": "creatorContract",
          "type": "address"
        },
        {
          "indexed": false,
          "internalType": "string",
          "name": "metadataURL",
          "type": "string"
        },
        {
          "indexed": false,
          "internalType": "uint256",
          "name": "subscriptionPrice",
          "type": "uint256"
        }
      ],
      "name": "CreatorDeployed",
      "type": "event"
    },
    {
      "inputs": [
        {
          "internalType": "address",
          "name": "",
          "type": "address"
        }
      ],
      "name": "creatorContracts",
      "outputs": [
        {
          "internalType": "address",
          "name": "",
          "type": "address"
        }
      ],
      "stateMutability": "view",
      "type": "function"
    },
    {
      "inputs": [
        {
          "internalType": "string",
          "name": "metadataURL",
          "type": "string"
        },
        {
          "internalType": "uint256",
          "name": "subscriptionPrice",
          "type": "uint256"
        }
      ],
      "name": "deployCreator",
      "outputs": [],
      "stateMutability": "nonpayable",
      "type": "function"
    }
  ],
  "transactionHash": "0x54322b33e34cfd694835cf7758b301e59ee92f0f1ac147a65a0d31e6e6d53ec8",
  "args": [
    "0x22ff293e14F1EC3A09B137e9e06084AFd63adDF9",
    "0xEd6BcbF6907D4feEEe8a8875543249bEa9D308E8",
    "0x8aE68021f6170E5a766bE613cEA0d75236ECCa9a"
  ],
  "solcInputHash": "e9996e06e619079ad7c1e24f7b1b59b8",
  "bytecode": "0x608060405234801561001057600080fd5b50604051611f11380380611f118339818101604052606081101561003357600080fd5b5080516020820151604090920151600180546001600160a01b03199081166001600160a01b039485161790915560028054821694841694909417909355600380549093169116179055611e868061008b6000396000f3fe608060405234801561001057600080fd5b50600436106100365760003560e01c8063bef9bfdc1461003b578063e9d8d88f14610097575b600080fd5b61006e6004803603602081101561005157600080fd5b503573ffffffffffffffffffffffffffffffffffffffff16610109565b6040805173ffffffffffffffffffffffffffffffffffffffff9092168252519081900360200190f35b610107600480360360408110156100ad57600080fd5b8101906020810181356401000000008111156100c857600080fd5b8201836020820111156100da57600080fd5b803590602001918460018302840111640100000000831117156100fc57600080fd5b919350915035610131565b005b60006020819052908152604090205473ffffffffffffffffffffffffffffffffffffffff1681565b61016f6040518060400160405280600d81526020017f70726520636f6e73747275637400000000000000000000000000000000000000815250610453565b60007322ff293e14f1ec3a09b137e9e06084afd63addf973ed6bcbf6907d4feeee8a8875543249bea9d308e8738ae68021f6170e5a766be613cea0d75236ecca9a6040516101bc9061054b565b73ffffffffffffffffffffffffffffffffffffffff938416815291831660208301529091166040808301919091525190819003606001906000f080158015610208573d6000803e3d6000fd5b5090506102496040518060400160405280600e81526020017f706f737420636f6e737472756374000000000000000000000000000000000000815250610453565b60408051808201909152600881527f70726520696e69740000000000000000000000000000000000000000000000006020820152819061028890610453565b8173ffffffffffffffffffffffffffffffffffffffff1663b6bba7a6338787876040518563ffffffff1660e01b8152600401808573ffffffffffffffffffffffffffffffffffffffff168152602001806020018381526020018281038252858582818152602001925080828437600081840152601f19601f82011690508083019250505095505050505050600060405180830381600087803b15801561032d57600080fd5b505af1158015610341573d6000803e3d6000fd5b505050506103836040518060400160405280600981526020017f706f737420696e69740000000000000000000000000000000000000000000000815250610453565b336000818152602081815260409182902080547fffffffffffffffffffffffff00000000000000000000000000000000000000001673ffffffffffffffffffffffffffffffffffffffff86169081179091558251848152918201526060810186905260809181018281529181018790527f215dcde4cec02030a2493197a3ae4996dccae3964f175ef907789b86b06abf7a9291849189918991899160a08201858580828437600083820152604051601f909101601f19169092018290039850909650505050505050a15050505050565b610527816040516024018080602001828103825283818151815260200191508051906020019080838360005b8381101561049757818101518382015260200161047f565b50505050905090810190601f1680156104c45780820380516001836020036101000a031916815260200191505b5060408051601f198184030181529190526020810180517bffffffffffffffffffffffffffffffffffffffffffffffffffffffff167f41304fac00000000000000000000000000000000000000000000000000000000179052925061052a915050565b50565b80516a636f6e736f6c652e6c6f67602083016000808483855afa5050505050565b6118f8806105598339019056fe6080604052600d5462278d009060121b600780546001600160601b0319166001600160601b0393909204600b0b929092161790553480156200004057600080fd5b50604051620018f8380380620018f883398101604081905262000063916200013f565b6001600160a01b0383166200007457fe5b6001600160a01b0382166200008557fe5b6001600160a01b0381166200009657fe5b600080546001600160a01b038086166001600160a01b0319928316179283905560018054868316908416179055600280548583169316929092179091556040516315a722b960e31b8152641500000001929091169063ad3915c8906200010190849060040162000192565b600060405180830381600087803b1580156200011c57600080fd5b505af115801562000131573d6000803e3d6000fd5b5050505050505050620001b4565b60008060006060848603121562000154578283fd5b835162000161816200019b565b602085015190935062000174816200019b565b604085015190925062000187816200019b565b809150509250925092565b90815260200190565b6001600160a01b0381168114620001b157600080fd5b50565b61173480620001c46000396000f3fe608060405234801561001057600080fd5b50600436106101365760003560e01c806369d5f38a116100b2578063ac6d0fa411610081578063b6bba7a611610066578063b6bba7a614610258578063bdc8e54c1461026b578063d86ed3e51461018157610136565b8063ac6d0fa414610223578063b5c7b6921461023857610136565b806369d5f38a146101f5578063747daec5146102085780637a5b4f591461021b578063884d1f40146101a957610136565b80632dcc8c661161010957806353c11f99116100ee57806353c11f99146101bc57806359221a68146101cf5780635f9e7d77146101e257610136565b80632dcc8c66146101a157806330d9c915146101a957610136565b806302d05d3f1461013b57806313ebc91b146101595780631dd071641461016e578063230dbd2914610181575b600080fd5b610143610273565b604051610150919061142f565b60405180910390f35b61016c61016736600461103f565b610282565b005b61014361017c366004610fe4565b6102c5565b61019461018f3660046111c0565b6102e0565b60405161015091906114e4565b610194610334565b6101946101b7366004611124565b6103c2565b6101946101ca3660046111c0565b610453565b6101436101dd3660046113a9565b6104ef565b6101946101f0366004611124565b610516565b61016c6102033660046113a9565b6105ba565b61016c610216366004611287565b6105cc565b610194610602565b61022b610698565b604051610150919061145d565b61024b610246366004610fe4565b6106f9565b6040516101509190611689565b61016c610266366004611092565b61070b565b61024b610753565b600a546001600160a01b031681565b6102c06040518060400160405280600381526020017f636f6c0000000000000000000000000000000000000000000000000000000000815250610759565b505050565b6008602052600090815260409020546001600160a01b031681565b6000546060906001600160a01b031633146103165760405162461bcd60e51b815260040161030d9061162c565b60405180910390fd5b61032483838b8b89896107cd565b90505b9998505050505050505050565b600b805460408051602060026001851615610100026000190190941693909304601f810184900484028201840190925281815292918301828280156103ba5780601f1061038f576101008083540402835291602001916103ba565b820191906000526020600020905b81548152906001019060200180831161039d57829003601f168201915b505050505081565b6000546060906001600160a01b031633146103ef5760405162461bcd60e51b815260040161030d9061162c565b87876103fa82610a41565b6104165760405162461bcd60e51b815260040161030d906115cf565b61041f81610a55565b61043b5760405162461bcd60e51b815260040161030d9061153b565b6104458585610af0565b9a9950505050505050505050565b6000546060906001600160a01b031633146104805760405162461bcd60e51b815260040161030d9061162c565b600061048e858701876110ec565b905080156104d65783838080601f0160208091040260200160405190810160405280939291908181526020018383808284376000920191909152509294506103279350505050565b6104e08484610c01565b9b9a5050505050505050505050565b600c81815481106104fc57fe5b6000918252602090912001546001600160a01b0316905081565b6000546060906001600160a01b031633146105435760405162461bcd60e51b815260040161030d9061162c565b61054c88610a41565b158061055e575061055c87610a55565b155b1561058b57600160405160200161057591906114aa565b60405160208183030381529060405290506105af565b600060405160200161059d91906114aa565b60405160208183030381529060405290505b979650505050505050565b33600090815260096020526040902055565b600a546001600160a01b031633146105f65760405162461bcd60e51b815260040161030d90611598565b6102c0600b8383610e3f565b600b8054604080516020601f600260001961010060018816150201909516949094049384018190048102820181019092528281526060939092909183018282801561068e5780601f106106635761010080835404028352916020019161068e565b820191906000526020600020905b81548152906001019060200180831161067157829003601f168201915b5050505050905090565b6060600c80548060200260200160405190810160405280929190818152602001828054801561068e57602002820191906000526020600020905b81546001600160a01b031681526001909101906020018083116106d2575050505050905090565b60096020526000908152604090205481565b600a80547fffffffffffffffffffffffff0000000000000000000000000000000000000000166001600160a01b03861617905561074a600b8484610e3f565b50600d55505050565b600d5481565b6107ca8160405160240161076d91906114e4565b60408051601f198184030181529190526020810180517bffffffffffffffffffffffffffffffffffffffffffffffffffffffff167f41304fac00000000000000000000000000000000000000000000000000000000179052610cbc565b50565b606061080d6040518060400160405280600181526020017f7300000000000000000000000000000000000000000000000000000000000000815250610759565b60008061081c84860186611007565b9150915061085f6040518060400160405280601181526020017f73747265616d657220616464726573733a00000000000000000000000000000081525083610cdd565b61089e6040518060400160405280601381526020017f6d656d6265727368697020616464726573733a0000000000000000000000000081525082610cdd565b6108dd6040518060400160405280600f81526020017f61677265656d656e74636c6173733a000000000000000000000000000000000081525088610cdd565b6002546040517faabd26680000000000000000000000000000000000000000000000000000000081526000916001600160a01b03808b169263aabd26689261092b9216908b906004016114f7565b60806040518083038186803b15801561094357600080fd5b505afa158015610957573d6000803e3d6000fd5b505050506040513d601f19601f8201168201806040525081019061097b91906113c1565b50509150506109be6040518060400160405280600c81526020017f6166746572726571756972650000000000000000000000000000000000000000815250610759565b6109fc6040518060400160405280600d81526020017f616674657273747265616d657200000000000000000000000000000000000000815250610759565b89898080601f016020809104026020016040519081016040528093929190818152602001838380828437600092019190915250929d9c50505050505050505050505050565b6002546001600160a01b0390811691161490565b60007fa9214cc96615e0085d3bb077758db69497dc2dce3b2b1e97bc93c3d18d83efd3826001600160a01b0316637730599e6040518163ffffffff1660e01b815260040160206040518083038186803b158015610ab157600080fd5b505afa158015610ac5573d6000803e3d6000fd5b505050506040513d601f19601f82011682018060405250810190610ae9919061110c565b1492915050565b6060610b306040518060400160405280600281526020017f6273000000000000000000000000000000000000000000000000000000000000815250610759565b600080546040517f3f6c923a0000000000000000000000000000000000000000000000000000000081526001600160a01b0390911690633f6c923a90610b7c90879087906004016114b5565b60006040518083038186803b158015610b9457600080fd5b505afa158015610ba8573d6000803e3d6000fd5b505050506040513d6000823e601f3d908101601f19168201604052610bd091908101906112c7565b6060015190508081604051602001610be9929190611443565b60405160208183030381529060405291505092915050565b600080546040517f3f6c923a000000000000000000000000000000000000000000000000000000008152606092916001600160a01b031690633f6c923a90610c4f90879087906004016114b5565b60006040518083038186803b158015610c6757600080fd5b505afa158015610c7b573d6000803e3d6000fd5b505050506040513d6000823e601f3d908101601f19168201604052610ca391908101906112c7565b606001519050610cb4600382610d54565b505092915050565b80516a636f6e736f6c652e6c6f67602083016000808483855afa5050505050565b610d508282604051602401610cf3929190611510565b60408051601f198184030181529190526020810180517bffffffffffffffffffffffffffffffffffffffffffffffffffffffff167f319af33300000000000000000000000000000000000000000000000000000000179052610cbc565b5050565b6000610d69836001600160a01b038416610d72565b90505b92915050565b60008181526001830160205260408120548015610e2e5783546000198083019190810190600090879083908110610da557fe5b9060005260206000200154905080876000018481548110610dc257fe5b600091825260208083209091019290925582815260018981019092526040902090840190558654879080610df257fe5b60019003818190600052602060002001600090559055866001016000878152602001908152602001600020600090556001945050505050610d6c565b6000915050610d6c565b5092915050565b828054600181600116156101000203166002900490600052602060002090601f016020900481019282601f10610e9e578280017fffffffffffffffffffffffffffffffffffffffffffffffffffffffffffffff00823516178555610ecb565b82800160010185558215610ecb579182015b82811115610ecb578235825591602001919060010190610eb0565b50610ed7929150610edb565b5090565b5b80821115610ed75760008155600101610edc565b8051610d6c816116e9565b80517fffffffff0000000000000000000000000000000000000000000000000000000081168114610d6c57600080fd5b60008083601f840112610f3c578182fd5b50813567ffffffffffffffff811115610f53578182fd5b602083019150836020828501011115610f6b57600080fd5b9250929050565b600082601f830112610f82578081fd5b815167ffffffffffffffff811115610f98578182fd5b610fab6020601f19601f84011601611692565b9150808252836020828501011115610fc257600080fd5b610e388160208401602086016116b9565b805160ff81168114610d6c57600080fd5b600060208284031215610ff5578081fd5b8135611000816116e9565b9392505050565b60008060408385031215611019578081fd5b8235611024816116e9565b91506020830135611034816116e9565b809150509250929050565b600080600060408486031215611053578081fd5b833561105e816116e9565b9250602084013567ffffffffffffffff811115611079578182fd5b61108586828701610f2b565b9497909650939450505050565b600080600080606085870312156110a7578081fd5b84356110b2816116e9565b9350602085013567ffffffffffffffff8111156110cd578182fd5b6110d987828801610f2b565b9598909750949560400135949350505050565b6000602082840312156110fd578081fd5b81358015158114611000578182fd5b60006020828403121561111d578081fd5b5051919050565b600080600080600080600060a0888a03121561113e578283fd5b8735611149816116e9565b96506020880135611159816116e9565b955060408801359450606088013567ffffffffffffffff8082111561117c578485fd5b6111888b838c01610f2b565b909650945060808a01359150808211156111a0578384fd5b506111ad8a828b01610f2b565b989b979a50959850939692959293505050565b600080600080600080600080600060c08a8c0312156111dd578283fd5b89356111e8816116e9565b985060208a01356111f8816116e9565b975060408a0135965060608a013567ffffffffffffffff8082111561121b578485fd5b6112278d838e01610f2b565b909850965060808c013591508082111561123f578485fd5b61124b8d838e01610f2b565b909650945060a08c0135915080821115611263578384fd5b506112708c828d01610f2b565b915080935050809150509295985092959850929598565b60008060208385031215611299578182fd5b823567ffffffffffffffff8111156112af578283fd5b6112bb85828601610f2b565b90969095509350505050565b6000602082840312156112d8578081fd5b815167ffffffffffffffff808211156112ef578283fd5b8184019150610120808387031215611305578384fd5b61130e81611692565b905061131a8684610fd3565b81526113298660208501610fd3565b6020820152604083015160408201526113458660608501610ef0565b60608201526113578660808501610efb565b608082015260a08301518281111561136d578485fd5b61137987828601610f72565b60a08301525060c0838101519082015260e080840151908201526101009283015192810192909252509392505050565b6000602082840312156113ba578081fd5b5035919050565b600080600080608085870312156113d6578182fd5b84519350602085015180600b0b81146113ed578283fd5b6040860151606090960151949790965092505050565b6000815180845261141b8160208601602086016116b9565b601f01601f19169290920160200192915050565b6001600160a01b0391909116815260200190565b6001600160a01b0392831681529116602082015260400190565b6020808252825182820181905260009190848201906040850190845b8181101561149e5783516001600160a01b031683529284019291840191600101611479565b50909695505050505050565b901515815260200190565b60006020825282602083015282846040840137818301604090810191909152601f909201601f19160101919050565b600060208252610d696020830184611403565b6001600160a01b03929092168252602082015260400190565b6000604082526115236040830185611403565b90506001600160a01b03831660208301529392505050565b60208082526025908201527f43726561746f6e53757065724170703a206f6e6c79204346417631207375707060408201527f6f72746564000000000000000000000000000000000000000000000000000000606082015260800190565b60208082526017908201527f596f7520617265206e6f74207468652063726561746f72000000000000000000604082015260600190565b60208082526023908201527f43726561746f6e53757065724170703a206e6f7420616363657074656420746f60408201527f6b656e0000000000000000000000000000000000000000000000000000000000606082015260800190565b60208082526026908201527f43726561746f6e53757065724170703a20737570706f7274206f6e6c79206f6e60408201527f6520686f73740000000000000000000000000000000000000000000000000000606082015260800190565b90815260200190565b60405181810167ffffffffffffffff811182821017156116b157600080fd5b604052919050565b60005b838110156116d45781810151838201526020016116bc565b838111156116e3576000848401525b50505050565b6001600160a01b03811681146107ca57600080fdfea2646970667358221220a4fe7494edba522944d3deebb8832fca4bc67e80f1709161e3f447414d92d45d64736f6c63430007010033a264697066735822122062731135d2a7ab29e92559b2b778c9e931a654dd6ac1f6023156d14da333504c64736f6c63430007010033",
  "devdoc": {
    "kind": "dev",
    "methods": {},
    "version": 1
  },
  "userdoc": {
    "kind": "user",
    "methods": {},
    "version": 1
  },
  "storageLayout": {
    "storage": [
      {
        "astId": 11987,
        "contract": "src/CreatonFactory.sol:CreatonFactory",
        "label": "creatorContracts",
        "offset": 0,
        "slot": "0",
        "type": "t_mapping(t_address,t_address)"
      },
      {
        "astId": 11989,
        "contract": "src/CreatonFactory.sol:CreatonFactory",
        "label": "_host",
        "offset": 0,
        "slot": "1",
        "type": "t_contract(ISuperfluid)3496"
      },
      {
        "astId": 11991,
        "contract": "src/CreatonFactory.sol:CreatonFactory",
        "label": "_cfa",
        "offset": 0,
        "slot": "2",
        "type": "t_contract(IConstantFlowAgreementV1)2332"
      },
      {
        "astId": 11993,
        "contract": "src/CreatonFactory.sol:CreatonFactory",
        "label": "_acceptedToken",
        "offset": 0,
        "slot": "3",
        "type": "t_contract(ISuperToken)3071"
      }
    ],
    "types": {
      "t_address": {
        "encoding": "inplace",
        "label": "address",
        "numberOfBytes": "20"
      },
      "t_contract(IConstantFlowAgreementV1)2332": {
        "encoding": "inplace",
        "label": "contract IConstantFlowAgreementV1",
        "numberOfBytes": "20"
      },
      "t_contract(ISuperToken)3071": {
        "encoding": "inplace",
        "label": "contract ISuperToken",
        "numberOfBytes": "20"
      },
      "t_contract(ISuperfluid)3496": {
        "encoding": "inplace",
        "label": "contract ISuperfluid",
        "numberOfBytes": "20"
      },
      "t_mapping(t_address,t_address)": {
        "encoding": "mapping",
        "key": "t_address",
        "label": "mapping(address => address)",
        "numberOfBytes": "32",
        "value": "t_address"
      }
    }
  }
}